:020000040000FA
:08000000803102288731F82F3E
:100C9C0008348631832686312300111408008631EE
:100CAC00832686312300111508002F009601970129
:100CBC00980199019A019B010800603031008D0068
:100CCC008F0191010230930092010800283023001B
:100CDC00900091018F170F1706308D00FF308E009A
:100CEC0008007C2E0130F0020030F13B70087104DA
:100CFC00031D812E822E782E080023000F19872EBB
:100D0C00882E832E11081F39031D8D2E8E2E832EB7
:100D1C00080086315B268631873160278631863123
:100D2C006326863186316C2686310800F0008631C8
:100D3C0083268631700823008C002E000F1CA72EF2
:100D4C00A82EA32E0F10230011080800F1008631E5
:100D5C004F2686317B0886319C26863171087D04AE
:100D6C0086319C2686318631552686310800F50061
:100D7C00FC017508F0398631E62686317508F400D9
:100D8C000330F435FF3E031DC72E7435F039863120
:100D9C00E62686310800F500FC01FC0A7508F039DE
:100DAC008631E62686317508F4000330F435FF3EB3
:100DBC00031DDC2E7435F0398631E62686310800A9
:100DCC00F3007C08F2007208F304730804388631CF
:100DDC00AC2686317308FB398631AC26863132302D
:100DEC00F0000030F100863177268631080086311C
:100DFC008F268631200012104E3087318F27863196
:100E0C00F601F60A01308731322786310030F600C0
:100E1C008830F70087311527863180310228F90197
:100E2C00FA01262F76087907840077087A3D850029
:100E3C0000088631D12687310130F9070030FA3DA0
:100E4C0076087907840077087A3D85001200031D27
:100E5C00302F312F182F0800F9004C2F7608BF3E89
:100E6C008631BD2687315F2F7608933E8631BD26AD
:100E7C0087315F2F7608D33E8631BD2687315F2FB1
:100E8C0076087F3E8631BD2687315F2F7908F700C3
:100E9C00F8017808003A0319542F462F7708023AC4
:100EAC000319342F013A03193A2F073A0319402F2B
:100EBC00462F080020009601970198019101FF3000
:100ECC009200FF309300E7303E00CE00FF30C300AD
:100EDC00B801E501C401B901CF01BA01C501D001C6
:100EEC00FF30BB00FF30C600FF30D100BC01FF302B
:100EFC00C700FF30D2000830E80013303D00C500B9
:100F0C0014303E00A3001530A40014303D00C60080
:100F1C000800F7007708F6007608FB0000308631F1
:100F2C00AC268731B830F0000B30F10086317726D3
:100F3C00873103308631BD268731F430F000013023
:100F4C00F10086317726873103308631BD26873113
:100F5C00F430F0000130F100863177268731033010
:100F6C008631BD268731F430F0000130F100863136
:100F7C007726873102308631BD268731F430F00078
:100F8C000130F10086317726873128308631BD2635
:100F9C0087318830F0001330F100863177268731A5
:100FAC000C308631BD2687318830F0001330F100CB
:100FBC0086317726873101308631BD2687318830DE
:100FCC00F0001330F10086317726873106308631F8
:100FDC00BD2687318830F0001330F100863177263A
:100FEC008731080086314E268731FD00FC01200038
:0A0FFC008631FD2E2034313400341C
:00000001FF
